{
  "contractName": "Evidence",
  "abi": [
    {
      "anonymous": false,
      "inputs": [
        {
          "indexed": true,
          "internalType": "uint256",
          "name": "_evidenceId",
          "type": "uint256"
        }
      ],
      "name": "evidenceCreated",
      "type": "event"
    },
    {
      "anonymous": false,
      "inputs": [
        {
          "indexed": true,
          "internalType": "uint256",
          "name": "_userId",
          "type": "uint256"
        }
      ],
      "name": "userCreated",
      "type": "event"
    },
    {
      "inputs": [],
      "name": "evidenceCount",
      "outputs": [
        {
          "internalType": "uint256",
          "name": "",
          "type": "uint256"
        }
      ],
      "stateMutability": "view",
      "type": "function",
      "constant": true
    },
    {
      "inputs": [
        {
          "internalType": "uint256",
          "name": "",
          "type": "uint256"
        }
      ],
      "name": "evidenceList",
      "outputs": [
        {
          "internalType": "string",
          "name": "evidence_id",
          "type": "string"
        },
        {
          "internalType": "string",
          "name": "officer_name",
          "type": "string"
        },
        {
          "internalType": "string",
          "name": "reported_crime",
          "type": "string"
        },
        {
          "internalType": "string",
          "name": "crime_details",
          "type": "string"
        },
        {
          "internalType": "string",
          "name": "evidence_details",
          "type": "string"
        },
        {
          "internalType": "string",
          "name": "crime_area",
          "type": "string"
        },
        {
          "internalType": "string",
          "name": "witness_name",
          "type": "string"
        },
        {
          "internalType": "string",
          "name": "witness_contact",
          "type": "string"
        },
        {
          "internalType": "string",
          "name": "crime_date",
          "type": "string"
        }
      ],
      "stateMutability": "view",
      "type": "function",
      "constant": true
    },
    {
      "inputs": [],
      "name": "userCount",
      "outputs": [
        {
          "internalType": "uint256",
          "name": "",
          "type": "uint256"
        }
      ],
      "stateMutability": "view",
      "type": "function",
      "constant": true
    },
    {
      "inputs": [
        {
          "internalType": "uint256",
          "name": "",
          "type": "uint256"
        }
      ],
      "name": "usersList",
      "outputs": [
        {
          "internalType": "string",
          "name": "username",
          "type": "string"
        },
        {
          "internalType": "string",
          "name": "password",
          "type": "string"
        },
        {
          "internalType": "string",
          "name": "phone",
          "type": "string"
        },
        {
          "internalType": "string",
          "name": "email",
          "type": "string"
        },
        {
          "internalType": "string",
          "name": "station_address",
          "type": "string"
        }
      ],
      "stateMutability": "view",
      "type": "function",
      "constant": true
    },
    {
      "inputs": [
        {
          "internalType": "string",
          "name": "eid",
          "type": "string"
        },
        {
          "internalType": "string",
          "name": "oname",
          "type": "string"
        },
        {
          "internalType": "string",
          "name": "crime",
          "type": "string"
        },
        {
          "internalType": "string",
          "name": "cd",
          "type": "string"
        },
        {
          "internalType": "string",
          "name": "ed",
          "type": "string"
        },
        {
          "internalType": "string",
          "name": "ca",
          "type": "string"
        },
        {
          "internalType": "string",
          "name": "wn",
          "type": "string"
        },
        {
          "internalType": "string",
          "name": "wc",
          "type": "string"
        },
        {
          "internalType": "string",
          "name": "crime_dd",
          "type": "string"
        }
      ],
      "name": "createEvidence",
      "outputs": [],
      "stateMutability": "nonpayable",
      "type": "function"
    },
    {
      "inputs": [],
      "name": "getEvidenceCount",
      "outputs": [
        {
          "internalType": "uint256",
          "name": "",
          "type": "uint256"
        }
      ],
      "stateMutability": "view",
      "type": "function",
      "constant": true
    },
    {
      "inputs": [
        {
          "internalType": "uint256",
          "name": "i",
          "type": "uint256"
        }
      ],
      "name": "getEvidenceid",
      "outputs": [
        {
          "internalType": "string",
          "name": "",
          "type": "string"
        }
      ],
      "stateMutability": "view",
      "type": "function",
      "constant": true
    },
    {
      "inputs": [
        {
          "internalType": "uint256",
          "name": "i",
          "type": "uint256"
        }
      ],
      "name": "getOfficername",
      "outputs": [
        {
          "internalType": "string",
          "name": "",
          "type": "string"
        }
      ],
      "stateMutability": "view",
      "type": "function",
      "constant": true
    },
    {
      "inputs": [
        {
          "internalType": "uint256",
          "name": "i",
          "type": "uint256"
        }
      ],
      "name": "getReportedcrime",
      "outputs": [
        {
          "internalType": "string",
          "name": "",
          "type": "string"
        }
      ],
      "stateMutability": "view",
      "type": "function",
      "constant": true
    },
    {
      "inputs": [
        {
          "internalType": "uint256",
          "name": "i",
          "type": "uint256"
        }
      ],
      "name": "getCrimedetails",
      "outputs": [
        {
          "internalType": "string",
          "name": "",
          "type": "string"
        }
      ],
      "stateMutability": "view",
      "type": "function",
      "constant": true
    },
    {
      "inputs": [
        {
          "internalType": "uint256",
          "name": "i",
          "type": "uint256"
        }
      ],
      "name": "getEvidencedetails",
      "outputs": [
        {
          "internalType": "string",
          "name": "",
          "type": "string"
        }
      ],
      "stateMutability": "view",
      "type": "function",
      "constant": true
    },
    {
      "inputs": [
        {
          "internalType": "uint256",
          "name": "i",
          "type": "uint256"
        }
      ],
      "name": "getCrimearea",
      "outputs": [
        {
          "internalType": "string",
          "name": "",
          "type": "string"
        }
      ],
      "stateMutability": "view",
      "type": "function",
      "constant": true
    },
    {
      "inputs": [
        {
          "internalType": "uint256",
          "name": "i",
          "type": "uint256"
        }
      ],
      "name": "getWitnessname",
      "outputs": [
        {
          "internalType": "string",
          "name": "",
          "type": "string"
        }
      ],
      "stateMutability": "view",
      "type": "function",
      "constant": true
    },
    {
      "inputs": [
        {
          "internalType": "uint256",
          "name": "i",
          "type": "uint256"
        }
      ],
      "name": "getCrimedate",
      "outputs": [
        {
          "internalType": "string",
          "name": "",
          "type": "string"
        }
      ],
      "stateMutability": "view",
      "type": "function",
      "constant": true
    },
    {
      "inputs": [
        {
          "internalType": "uint256",
          "name": "i",
          "type": "uint256"
        }
      ],
      "name": "getWitnesscontact",
      "outputs": [
        {
          "internalType": "string",
          "name": "",
          "type": "string"
        }
      ],
      "stateMutability": "view",
      "type": "function",
      "constant": true
    },
    {
      "inputs": [
        {
          "internalType": "string",
          "name": "_username",
          "type": "string"
        },
        {
          "internalType": "string",
          "name": "_password",
          "type": "string"
        },
        {
          "internalType": "string",
          "name": "_phone",
          "type": "string"
        },
        {
          "internalType": "string",
          "name": "em",
          "type": "string"
        },
        {
          "internalType": "string",
          "name": "sa",
          "type": "string"
        }
      ],
      "name": "createUser",
      "outputs": [],
      "stateMutability": "nonpayable",
      "type": "function"
    },
    {
      "inputs": [],
      "name": "getUserCount",
      "outputs": [
        {
          "internalType": "uint256",
          "name": "",
          "type": "uint256"
        }
      ],
      "stateMutability": "view",
      "type": "function",
      "constant": true
    },
    {
      "inputs": [
        {
          "internalType": "uint256",
          "name": "i",
          "type": "uint256"
        }
      ],
      "name": "getUsername",
      "outputs": [
        {
          "internalType": "string",
          "name": "",
          "type": "string"
        }
      ],
      "stateMutability": "view",
      "type": "function",
      "constant": true
    },
    {
      "inputs": [
        {
          "internalType": "uint256",
          "name": "i",
          "type": "uint256"
        }
      ],
      "name": "getPassword",
      "outputs": [
        {
          "internalType": "string",
          "name": "",
          "type": "string"
        }
      ],
      "stateMutability": "view",
      "type": "function",
      "constant": true
    },
    {
      "inputs": [
        {
          "internalType": "uint256",
          "name": "i",
          "type": "uint256"
        }
      ],
      "name": "getPhone",
      "outputs": [
        {
          "internalType": "string",
          "name": "",
          "type": "string"
        }
      ],
      "stateMutability": "view",
      "type": "function",
      "constant": true
    },
    {
      "inputs": [
        {
          "internalType": "uint256",
          "name": "i",
          "type": "uint256"
        }
      ],
      "name": "getEmail",
      "outputs": [
        {
          "internalType": "string",
          "name": "",
          "type": "string"
        }
      ],
      "stateMutability": "view",
      "type": "function",
      "constant": true
    },
    {
      "inputs": [
        {
          "internalType": "uint256",
          "name": "i",
          "type": "uint256"
        }
      ],
      "name": "getStationaddress",
      "outputs": [
        {
          "internalType": "string",
          "name": "",
          "type": "string"
        }
      ],
      "stateMutability": "view",
      "type": "function",
      "constant": true
    }
  ],
  "bytecode": "0x608060405260008055600060025534801561001957600080fd5b5061575f806200002a6000396000f3fe608060405234801561001057600080fd5b50600436106101415760003560e01c8063a2ed5af0116100b8578063dae1ab041161007c578063dae1ab04146103e2578063ee0c833414610412578063f10b82df14610442578063f18d18cc14610472578063f21d6c72146104a2578063f38c6bb6146104d257610141565b8063a2ed5af014610328578063adb388ea14610346578063b455a13a14610376578063b5cb15f7146103a6578063b8d44487146103c457610141565b8063502aa3b51161010a578063502aa3b51461022c578063555a708f14610260578063567b89281461029057806365c06f70146102ac578063972fe8bc146102c85780639fef410f146102f857610141565b8062b31b7114610146578063036d57dd1461017e57806307973ccf146101ae5780631b8f32a7146101cc5780632e7d44b5146101fc575b600080fd5b610160600480360381019061015b9190614ffa565b610502565b604051610175999897969594939291906150c0565b60405180910390f35b61019860048036038101906101939190614ffa565b610a18565b6040516101a5919061518c565b60405180910390f35b6101b6610f6c565b6040516101c391906151bd565b60405180910390f35b6101e660048036038101906101e19190614ffa565b610f72565b6040516101f3919061518c565b60405180910390f35b61021660048036038101906102119190614ffa565b6114c6565b604051610223919061518c565b60405180910390f35b61024660048036038101906102419190614ffa565b6117d1565b6040516102579594939291906151d8565b60405180910390f35b61027a60048036038101906102759190614ffa565b611aaf565b604051610287919061518c565b60405180910390f35b6102aa60048036038101906102a59190615383565b612003565b005b6102c660048036038101906102c19190615549565b6121b1565b005b6102e260048036038101906102dd9190614ffa565b6122cf565b6040516102ef919061518c565b60405180910390f35b610312600480360381019061030d9190614ffa565b6125da565b60405161031f919061518c565b60405180910390f35b610330612b2e565b60405161033d91906151bd565b60405180910390f35b610360600480360381019061035b9190614ffa565b612b34565b60405161036d919061518c565b60405180910390f35b610390600480360381019061038b9190614ffa565b613088565b60405161039d919061518c565b60405180910390f35b6103ae6135dc565b6040516103bb91906151bd565b60405180910390f35b6103cc6135e6565b6040516103d991906151bd565b60405180910390f35b6103fc60048036038101906103f79190614ffa565b6135ef565b604051610409919061518c565b60405180910390f35b61042c60048036038101906104279190614ffa565b6138fa565b604051610439919061518c565b60405180910390f35b61045c60048036038101906104579190614ffa565b613e4e565b604051610469919061518c565b60405180910390f35b61048c60048036038101906104879190614ffa565b6143a3565b604051610499919061518c565b60405180910390f35b6104bc60048036038101906104b79190614ffa565b6146ae565b6040516104c9919061518c565b60405180910390f35b6104ec60048036038101906104e79190614ffa565b614c02565b6040516104f9919061518c565b60405180910390f35b60016020528060005260406000206000915090508060000180546105259061567f565b80601f01602080910402602001604051908101604052809291908181526020018280546105519061567f565b801561059e5780601f106105735761010080835404028352916020019161059e565b820191906000526020600020905b81548152906001019060200180831161058157829003601f168201915b5050505050908060010180546105b39061567f565b80601f01602080910402602001604051908101604052809291908181526020018280546105df9061567f565b801561062c5780601f106106015761010080835404028352916020019161062c565b820191906000526020600020905b81548152906001019060200180831161060f57829003601f168201915b5050505050908060020180546106419061567f565b80601f016020809104026020016040519081016040528092919081815260200182805461066d9061567f565b80156106ba5780601f1061068f576101008083540402835291602001916106ba565b820191906000526020600020905b81548152906001019060200180831161069d57829003601f168201915b5050505050908060030180546106cf9061567f565b80601f01602080910402602001604051908101604052809291908181526020018280546106fb9061567f565b80156107485780601f1061071d57610100808354040283529160200191610748565b820191906000526020600020905b81548152906001019060200180831161072b57829003601f168201915b50505050509080600401805461075d9061567f565b80601f01602080910402602001604051908101604052809291908181526020018280546107899061567f565b80156107d65780601f106107ab576101008083540402835291602001916107d6565b820191906000526020600020905b8154815290600101906020018083116107b957829003601f168201915b5050505050908060050180546107eb9061567f565b80601f01602080910402602001604051908101604052809291908181526020018280546108179061567f565b80156108645780601f1061083957610100808354040283529160200191610864565b820191906000526020600020905b81548152906001019060200180831161084757829003601f168201915b5050505050908060060180546108799061567f565b80601f01602080910402602001604051908101604052809291908181526020018280546108a59061567f565b80156108f25780601f106108c7576101008083540402835291602001916108f2565b820191906000526020600020905b8154815290600101906020018083116108d557829003601f168201915b5050505050908060070180546109079061567f565b80601f01602080910402602001604051908101604052809291908181526020018280546109339061567f565b80156109805780601f1061095557610100808354040283529160200191610980565b820191906000526020600020905b81548152906001019060200180831161096357829003601f168201915b5050505050908060080180546109959061567f565b80601f01602080910402602001604051908101604052809291908181526020018280546109c19061567f565b8015610a0e5780601f106109e357610100808354040283529160200191610a0e565b820191906000526020600020905b8154815290600101906020018083116109f157829003601f168201915b5050505050905089565b606060006001600084815260200190815260200160002060405180610120016040529081600082018054610a4b9061567f565b80601f0160208091040260200160405190810160405280929190818152602001828054610a779061567f565b8015610ac45780601f10610a9957610100808354040283529160200191610ac4565b820191906000526020600020905b815481529060010190602001808311610aa757829003601f168201915b50505050508152602001600182018054610add9061567f565b80601f0160208091040260200160405190810160405280929190818152602001828054610b099061567f565b8015610b565780601f10610b2b57610100808354040283529160200191610b56565b820191906000526020600020905b815481529060010190602001808311610b3957829003601f168201915b50505050508152602001600282018054610b6f9061567f565b80601f0160208091040260200160405190810160405280929190818152602001828054610b9b9061567f565b8015610be85780601f10610bbd57610100808354040283529160200191610be8565b820191906000526020600020905b815481529060010190602001808311610bcb57829003601f168201915b50505050508152602001600382018054610c019061567f565b80601f0160208091040260200160405190810160405280929190818152602001828054610c2d9061567f565b8015610c7a5780601f10610c4f57610100808354040283529160200191610c7a565b820191906000526020600020905b815481529060010190602001808311610c5d57829003601f168201915b50505050508152602001600482018054610c939061567f565b80601f0160208091040260200160405190810160405280929190818152602001828054610cbf9061567f565b8015610d0c5780601f10610ce157610100808354040283529160200191610d0c565b820191906000526020600020905b815481529060010190602001808311610cef57829003601f168201915b50505050508152602001600582018054610d259061567f565b80601f0160208091040260200160405190810160405280929190818152602001828054610d519061567f565b8015610d9e5780601f10610d7357610100808354040283529160200191610d9e565b820191906000526020600020905b815481529060010190602001808311610d8157829003601f168201915b50505050508152602001600682018054610db79061567f565b80601f0160208091040260200160405190810160405280929190818152602001828054610de39061567f565b8015610e305780601f10610e0557610100808354040283529160200191610e30565b820191906000526020600020905b815481529060010190602001808311610e1357829003601f168201915b50505050508152602001600782018054610e499061567f565b80601f0160208091040260200160405190810160405280929190818152602001828054610e759061567f565b8015610ec25780601f10610e9757610100808354040283529160200191610ec2565b820191906000526020600020905b815481529060010190602001808311610ea557829003601f168201915b50505050508152602001600882018054610edb9061567f565b80601f0160208091040260200160405190810160405280929190818152602001828054610f079061567f565b8015610f545780601f10610f2957610100808354040283529160200191610f54565b820191906000526020600020905b815481529060010190602001808311610f3757829003601f168201915b50505050508152505090508060c00151915050919050565b60025481565b606060006001600084815260200190815260200160002060405180610120016040529081600082018054610fa59061567f565b80601f0160208091040260200160405190810160405280929190818152602001828054610fd19061567f565b801561101e5780601f10610ff35761010080835404028352916020019161101e565b820191906000526020600020905b81548152906001019060200180831161100157829003601f168201915b505050505081526020016001820180546110379061567f565b80601f01602080910402602001604051908101604052809291908181526020018280546110639061567f565b80156110b05780601f10611085576101008083540402835291602001916110b0565b820191906000526020600020905b81548152906001019060200180831161109357829003601f168201915b505050505081526020016002820180546110c99061567f565b80601f01602080910402602001604051908101604052809291908181526020018280546110f59061567f565b80156111425780601f1061111757610100808354040283529160200191611142565b820191906000526020600020905b81548152906001019060200180831161112557829003601f168201915b5050505050815260200160038201805461115b9061567f565b80601f01602080910402602001604051908101604052809291908181526020018280546111879061567f565b80156111d45780601f106111a9576101008083540402835291602001916111d4565b820191906000526020600020905b8154815290600101906020018083116111b757829003601f168201915b505050505081526020016004820180546111ed9061567f565b80601f01602080910402602001604051908101604052809291908181526020018280546112199061567f565b80156112665780601f1061123b57610100808354040283529160200191611266565b820191906000526020600020905b81548152906001019060200180831161124957829003601f168201915b5050505050815260200160058201805461127f9061567f565b80601f01602080910402602001604051908101604052809291908181526020018280546112ab9061567f565b80156112f85780601f106112cd576101008083540402835291602001916112f8565b820191906000526020600020905b8154815290600101906020018083116112db57829003601f168201915b505050505081526020016006820180546113119061567f565b80601f016020809104026020016040519081016040528092919081815260200182805461133d9061567f565b801561138a5780601f1061135f5761010080835404028352916020019161138a565b820191906000526020600020905b81548152906001019060200180831161136d57829003601f168201915b505050505081526020016007820180546113a39061567f565b80601f01602080910402602001604051908101604052809291908181526020018280546113cf9061567f565b801561141c5780601f106113f15761010080835404028352916020019161141c565b820191906000526020600020905b8154815290600101906020018083116113ff57829003601f168201915b505050505081526020016008820180546114359061567f565b80601f01602080910402602001604051908101604052809291908181526020018280546114619061567f565b80156114ae5780601f10611483576101008083540402835291602001916114ae565b820191906000526020600020905b81548152906001019060200180831161149157829003601f168201915b50505050508152505090508060200151915050919050565b60606000600360008481526020019081526020016000206040518060a00160405290816000820180546114f89061567f565b80601f01602080910402602001604051908101604052809291908181526020018280546115249061567f565b80156115715780601f1061154657610100808354040283529160200191611571565b820191906000526020600020905b81548152906001019060200180831161155457829003601f168201915b5050505050815260200160018201805461158a9061567f565b80601f01602080910402602001604051908101604052809291908181526020018280546115b69061567f565b80156116035780601f106115d857610100808354040283529160200191611603565b820191906000526020600020905b8154815290600101906020018083116115e657829003601f168201915b5050505050815260200160028201805461161c9061567f565b80601f01602080910402602001604051908101604052809291908181526020018280546116489061567f565b80156116955780601f1061166a57610100808354040283529160200191611695565b820191906000526020600020905b81548152906001019060200180831161167857829003601f168201915b505050505081526020016003820180546116ae9061567f565b80601f01602080910402602001604051908101604052809291908181526020018280546116da9061567f565b80156117275780601f106116fc57610100808354040283529160200191611727565b820191906000526020600020905b81548152906001019060200180831161170a57829003601f168201915b505050505081526020016004820180546117409061567f565b80601f016020809104026020016040519081016040528092919081815260200182805461176c9061567f565b80156117b95780601f1061178e576101008083540402835291602001916117b9565b820191906000526020600020905b81548152906001019060200180831161179c57829003601f168201915b50505050508152505090508060400151915050919050565b60036020528060005260406000206000915090508060000180546117f49061567f565b80601f01602080910402602001604051908101604052809291908181526020018280546118209061567f565b801561186d5780601f106118425761010080835404028352916020019161186d565b820191906000526020600020905b81548152906001019060200180831161185057829003601f168201915b5050505050908060010180546118829061567f565b80601f01602080910402602001604051908101604052809291908181526020018280546118ae9061567f565b80156118fb5780601f106118d0576101008083540402835291602001916118fb565b820191906000526020600020905b8154815290600101906020018083116118de57829003601f168201915b5050505050908060020180546119109061567f565b80601f016020809104026020016040519081016040528092919081815260200182805461193c9061567f565b80156119895780601f1061195e57610100808354040283529160200191611989565b820191906000526020600020905b81548152906001019060200180831161196c57829003601f168201915b50505050509080600301805461199e9061567f565b80601f01602080910402602001604051908101604052809291908181526020018280546119ca9061567f565b8015611a175780601f106119ec57610100808354040283529160200191611a17565b820191906000526020600020905b8154815290600101906020018083116119fa57829003601f168201915b505050505090806004018054611a2c9061567f565b80601f0160208091040260200160405190810160405280929190818152602001828054611a589061567f565b8015611aa55780601f10611a7a57610100808354040283529160200191611aa5565b820191906000526020600020905b815481529060010190602001808311611a8857829003601f168201915b5050505050905085565b606060006001600084815260200190815260200160002060405180610120016040529081600082018054611ae29061567f565b80601f0160208091040260200160405190810160405280929190818152602001828054611b0e9061567f565b8015611b5b5780601f10611b3057610100808354040283529160200191611b5b565b820191906000526020600020905b815481529060010190602001808311611b3e57829003601f168201915b50505050508152602001600182018054611b749061567f565b80601f0160208091040260200160405190810160405280929190818152602001828054611ba09061567f565b8015611bed5780601f10611bc257610100808354040283529160200191611bed565b820191906000526020600020905b815481529060010190602001808311611bd057829003601f168201915b50505050508152602001600282018054611c069061567f565b80601f0160208091040260200160405190810160405280929190818152602001828054611c329061567f565b8015611c7f5780601f10611c5457610100808354040283529160200191611c7f565b820191906000526020600020905b815481529060010190602001808311611c6257829003601f168201915b50505050508152602001600382018054611c989061567f565b80601f0160208091040260200160405190810160405280929190818152602001828054611cc49061567f565b8015611d115780601f10611ce657610100808354040283529160200191611d11565b820191906000526020600020905b815481529060010190602001808311611cf457829003601f168201915b50505050508152602001600482018054611d2a9061567f565b80601f0160208091040260200160405190810160405280929190818152602001828054611d569061567f565b8015611da35780601f10611d7857610100808354040283529160200191611da3565b820191906000526020600020905b815481529060010190602001808311611d8657829003601f168201915b50505050508152602001600582018054611dbc9061567f565b80601f0160208091040260200160405190810160405280929190818152602001828054611de89061567f565b8015611e355780601f10611e0a57610100808354040283529160200191611e35565b820191906000526020600020905b815481529060010190602001808311611e1857829003601f168201915b50505050508152602001600682018054611e4e9061567f565b80601f0160208091040260200160405190810160405280929190818152602001828054611e7a9061567f565b8015611ec75780601f10611e9c57610100808354040283529160200191611ec7565b820191906000526020600020905b815481529060010190602001808311611eaa57829003601f168201915b50505050508152602001600782018054611ee09061567f565b80601f0160208091040260200160405190810160405280929190818152602001828054611f0c9061567f565b8015611f595780601f10611f2e57610100808354040283529160200191611f59565b820191906000526020600020905b815481529060010190602001808311611f3c57829003601f168201915b50505050508152602001600882018054611f729061567f565b80601f0160208091040260200160405190810160405280929190818152602001828054611f9e9061567f565b8015611feb5780601f10611fc057610100808354040283529160200191611feb565b820191906000526020600020905b815481529060010190602001808311611fce57829003601f168201915b50505050508152505090508060e00151915050919050565b6040518061012001604052808a81526020018981526020018881526020018781526020018681526020018581526020018481526020018381526020018281525060016000805481526020019081526020016000206000820151816000019080519060200190612073929190614f0d565b506020820151816001019080519060200190612090929190614f0d565b5060408201518160020190805190602001906120ad929190614f0d565b5060608201518160030190805190602001906120ca929190614f0d565b5060808201518160040190805190602001906120e7929190614f0d565b5060a0820151816005019080519060200190612104929190614f0d565b5060c0820151816006019080519060200190612121929190614f0d565b5060e082015181600701908051906020019061213e929190614f0d565b5061010082015181600801908051906020019061215c929190614f0d565b509050506000547fe9be1e104e3ee33ef5f2ba4ef06a07c610202a05358b53684f13f171e96eb3af60405160405180910390a26000808154809291906121a1906156e0565b9190505550505050505050505050565b6040518060a00160405280868152602001858152602001848152602001838152602001828152506003600060025481526020019081526020016000206000820151816000019080519060200190612209929190614f0d565b506020820151816001019080519060200190612226929190614f0d565b506040820151816002019080519060200190612243929190614f0d565b506060820151816003019080519060200190612260929190614f0d565b50608082015181600401908051906020019061227d929190614f0d565b509050506002547f1ed675bb725b3a8b0434b9ee956fe05e4c0e79f9dc67c3f1a717a5bb1fd88fd360405160405180910390a2600260008154809291906122c3906156e0565b91905055505050505050565b60606000600360008481526020019081526020016000206040518060a00160405290816000820180546123019061567f565b80601f016020809104026020016040519081016040528092919081815260200182805461232d9061567f565b801561237a5780601f1061234f5761010080835404028352916020019161237a565b820191906000526020600020905b81548152906001019060200180831161235d57829003601f168201915b505050505081526020016001820180546123939061567f565b80601f01602080910402602001604051908101604052809291908181526020018280546123bf9061567f565b801561240c5780601f106123e15761010080835404028352916020019161240c565b820191906000526020600020905b8154815290600101906020018083116123ef57829003601f168201915b505050505081526020016002820180546124259061567f565b80601f01602080910402602001604051908101604052809291908181526020018280546124519061567f565b801561249e5780601f106124735761010080835404028352916020019161249e565b820191906000526020600020905b81548152906001019060200180831161248157829003601f168201915b505050505081526020016003820180546124b79061567f565b80601f01602080910402602001604051908101604052809291908181526020018280546124e39061567f565b80156125305780601f1061250557610100808354040283529160200191612530565b820191906000526020600020905b81548152906001019060200180831161251357829003601f168201915b505050505081526020016004820180546125499061567f565b80601f01602080910402602001604051908101604052809291908181526020018280546125759061567f565b80156125c25780601f10612597576101008083540402835291602001916125c2565b820191906000526020600020905b8154815290600101906020018083116125a557829003601f168201915b50505050508152505090508060600151915050919050565b60606000600160008481526020019081526020016000206040518061012001604052908160008201805461260d9061567f565b80601f01602080910402602001604051908101604052809291908181526020018280546126399061567f565b80156126865780601f1061265b57610100808354040283529160200191612686565b820191906000526020600020905b81548152906001019060200180831161266957829003601f168201915b5050505050815260200160018201805461269f9061567f565b80601f01602080910402602001604051908101604052809291908181526020018280546126cb9061567f565b80156127185780601f106126ed57610100808354040283529160200191612718565b820191906000526020600020905b8154815290600101906020018083116126fb57829003601f168201915b505050505081526020016002820180546127319061567f565b80601f016020809104026020016040519081016040528092919081815260200182805461275d9061567f565b80156127aa5780601f1061277f576101008083540402835291602001916127aa565b820191906000526020600020905b81548152906001019060200180831161278d57829003601f168201915b505050505081526020016003820180546127c39061567f565b80601f01602080910402602001604051908101604052809291908181526020018280546127ef9061567f565b801561283c5780601f106128115761010080835404028352916020019161283c565b820191906000526020600020905b81548152906001019060200180831161281f57829003601f168201915b505050505081526020016004820180546128559061567f565b80601f01602080910402602001604051908101604052809291908181526020018280546128819061567f565b80156128ce5780601f106128a3576101008083540402835291602001916128ce565b820191906000526020600020905b8154815290600101906020018083116128b157829003601f168201915b505050505081526020016005820180546128e79061567f565b80601f01602080910402602001604051908101604052809291908181526020018280546129139061567f565b80156129605780601f1061293557610100808354040283529160200191612960565b820191906000526020600020905b81548152906001019060200180831161294357829003601f168201915b505050505081526020016006820180546129799061567f565b80601f01602080910402602001604051908101604052809291908181526020018280546129a59061567f565b80156129f25780601f106129c7576101008083540402835291602001916129f2565b820191906000526020600020905b8154815290600101906020018083116129d557829003601f168201915b50505050508152602001600782018054612a0b9061567f565b80601f0160208091040260200160405190810160405280929190818152602001828054612a379061567f565b8015612a845780601f10612a5957610100808354040283529160200191612a84565b820191906000526020600020905b815481529060010190602001808311612a6757829003601f168201915b50505050508152602001600882018054612a9d9061567f565b80601f0160208091040260200160405190810160405280929190818152602001828054612ac99061567f565b8015612b165780601f10612aeb57610100808354040283529160200191612b16565b820191906000526020600020905b815481529060010190602001808311612af957829003601f168201915b50505050508152505090508060600151915050919050565b60005481565b606060006001600084815260200190815260200160002060405180610120016040529081600082018054612b679061567f565b80601f0160208091040260200160405190810160405280929190818152602001828054612b939061567f565b8015612be05780601f10612bb557610100808354040283529160200191612be0565b820191906000526020600020905b815481529060010190602001808311612bc357829003601f168201915b50505050508152602001600182018054612bf99061567f565b80601f0160208091040260200160405190810160405280929190818152602001828054612c259061567f565b8015612c725780601f10612c4757610100808354040283529160200191612c72565b820191906000526020600020905b815481529060010190602001808311612c5557829003601f168201915b50505050508152602001600282018054612c8b9061567f565b80601f0160208091040260200160405190810160405280929190818152602001828054612cb79061567f565b8015612d045780601f10612cd957610100808354040283529160200191612d04565b820191906000526020600020905b815481529060010190602001808311612ce757829003601f168201915b50505050508152602001600382018054612d1d9061567f565b80601f0160208091040260200160405190810160405280929190818152602001828054612d499061567f565b8015612d965780601f10612d6b57610100808354040283529160200191612d96565b820191906000526020600020905b815481529060010190602001808311612d7957829003601f168201915b50505050508152602001600482018054612daf9061567f565b80601f0160208091040260200160405190810160405280929190818152602001828054612ddb9061567f565b8015612e285780601f10612dfd57610100808354040283529160200191612e28565b820191906000526020600020905b815481529060010190602001808311612e0b57829003601f168201915b50505050508152602001600582018054612e419061567f565b80601f0160208091040260200160405190810160405280929190818152602001828054612e6d9061567f565b8015612eba5780601f10612e8f57610100808354040283529160200191612eba565b820191906000526020600020905b815481529060010190602001808311612e9d57829003601f168201915b50505050508152602001600682018054612ed39061567f565b80601f0160208091040260200160405190810160405280929190818152602001828054612eff9061567f565b8015612f4c5780601f10612f2157610100808354040283529160200191612f4c565b820191906000526020600020905b815481529060010190602001808311612f2f57829003601f168201915b50505050508152602001600782018054612f659061567f565b80601f0160208091040260200160405190810160405280929190818152602001828054612f919061567f565b8015612fde5780601f10612fb357610100808354040283529160200191612fde565b820191906000526020600020905b815481529060010190602001808311612fc157829003601f168201915b50505050508152602001600882018054612ff79061567f565b80601f01602080910402602001604051908101604052809291908181526020018280546130239061567f565b80156130705780601f1061304557610100808354040283529160200191613070565b820191906000526020600020905b81548152906001019060200180831161305357829003601f168201915b50505050508152505090508060400151915050919050565b6060600060016000848152602001908152602001600020604051806101200160405290816000820180546130bb9061567f565b80601f01602080910402602001604051908101604052809291908181526020018280546130e79061567f565b80156131345780601f1061310957610100808354040283529160200191613134565b820191906000526020600020905b81548152906001019060200180831161311757829003601f168201915b5050505050815260200160018201805461314d9061567f565b80601f01602080910402602001604051908101604052809291908181526020018280546131799061567f565b80156131c65780601f1061319b576101008083540402835291602001916131c6565b820191906000526020600020905b8154815290600101906020018083116131a957829003601f168201915b505050505081526020016002820180546131df9061567f565b80601f016020809104026020016040519081016040528092919081815260200182805461320b9061567f565b80156132585780601f1061322d57610100808354040283529160200191613258565b820191906000526020600020905b81548152906001019060200180831161323b57829003601f168201915b505050505081526020016003820180546132719061567f565b80601f016020809104026020016040519081016040528092919081815260200182805461329d9061567f565b80156132ea5780601f106132bf576101008083540402835291602001916132ea565b820191906000526020600020905b8154815290600101906020018083116132cd57829003601f168201915b505050505081526020016004820180546133039061567f565b80601f016020809104026020016040519081016040528092919081815260200182805461332f9061567f565b801561337c5780601f106133515761010080835404028352916020019161337c565b820191906000526020600020905b81548152906001019060200180831161335f57829003601f168201915b505050505081526020016005820180546133959061567f565b80601f01602080910402602001604051908101604052809291908181526020018280546133c19061567f565b801561340e5780601f106133e35761010080835404028352916020019161340e565b820191906000526020600020905b8154815290600101906020018083116133f157829003601f168201915b505050505081526020016006820180546134279061567f565b80601f01602080910402602001604051908101604052809291908181526020018280546134539061567f565b80156134a05780601f10613475576101008083540402835291602001916134a0565b820191906000526020600020905b81548152906001019060200180831161348357829003601f168201915b505050505081526020016007820180546134b99061567f565b80601f01602080910402602001604051908101604052809291908181526020018280546134e59061567f565b80156135325780601f1061350757610100808354040283529160200191613532565b820191906000526020600020905b81548152906001019060200180831161351557829003601f168201915b5050505050815260200160088201805461354b9061567f565b80601f01602080910402602001604051908101604052809291908181526020018280546135779061567f565b80156135c45780601f10613599576101008083540402835291602001916135c4565b820191906000526020600020905b8154815290600101906020018083116135a757829003601f168201915b50505050508152505090508060000151915050919050565b6000600254905090565b60008054905090565b60606000600360008481526020019081526020016000206040518060a00160405290816000820180546136219061567f565b80601f016020809104026020016040519081016040528092919081815260200182805461364d9061567f565b801561369a5780601f1061366f5761010080835404028352916020019161369a565b820191906000526020600020905b81548152906001019060200180831161367d57829003601f168201915b505050505081526020016001820180546136b39061567f565b80601f01602080910402602001604051908101604052809291908181526020018280546136df9061567f565b801561372c5780601f106137015761010080835404028352916020019161372c565b820191906000526020600020905b81548152906001019060200180831161370f57829003601f168201915b505050505081526020016002820180546137459061567f565b80601f01602080910402602001604051908101604052809291908181526020018280546137719061567f565b80156137be5780601f10613793576101008083540402835291602001916137be565b820191906000526020600020905b8154815290600101906020018083116137a157829003601f168201915b505050505081526020016003820180546137d79061567f565b80601f01602080910402602001604051908101604052809291908181526020018280546138039061567f565b80156138505780601f1061382557610100808354040283529160200191613850565b820191906000526020600020905b81548152906001019060200180831161383357829003601f168201915b505050505081526020016004820180546138699061567f565b80601f01602080910402602001604051908101604052809291908181526020018280546138959061567f565b80156138e25780601f106138b7576101008083540402835291602001916138e2565b820191906000526020600020905b8154815290600101906020018083116138c557829003601f168201915b50505050508152505090508060800151915050919050565b60606000600160008481526020019081526020016000206040518061012001604052908160008201805461392d9061567f565b80601f01602080910402602001604051908101604052809291908181526020018280546139599061567f565b80156139a65780601f1061397b576101008083540402835291602001916139a6565b820191906000526020600020905b81548152906001019060200180831161398957829003601f168201915b505050505081526020016001820180546139bf9061567f565b80601f01602080910402602001604051908101604052809291908181526020018280546139eb9061567f565b8015613a385780601f10613a0d57610100808354040283529160200191613a38565b820191906000526020600020905b815481529060010190602001808311613a1b57829003601f168201915b50505050508152602001600282018054613a519061567f565b80601f0160208091040260200160405190810160405280929190818152602001828054613a7d9061567f565b8015613aca5780601f10613a9f57610100808354040283529160200191613aca565b820191906000526020600020905b815481529060010190602001808311613aad57829003601f168201915b50505050508152602001600382018054613ae39061567f565b80601f0160208091040260200160405190810160405280929190818152602001828054613b0f9061567f565b8015613b5c5780601f10613b3157610100808354040283529160200191613b5c565b820191906000526020600020905b815481529060010190602001808311613b3f57829003601f168201915b50505050508152602001600482018054613b759061567f565b80601f0160208091040260200160405190810160405280929190818152602001828054613ba19061567f565b8015613bee5780601f10613bc357610100808354040283529160200191613bee565b820191906000526020600020905b815481529060010190602001808311613bd157829003601f168201915b50505050508152602001600582018054613c079061567f565b80601f0160208091040260200160405190810160405280929190818152602001828054613c339061567f565b8015613c805780601f10613c5557610100808354040283529160200191613c80565b820191906000526020600020905b815481529060010190602001808311613c6357829003601f168201915b50505050508152602001600682018054613c999061567f565b80601f0160208091040260200160405190810160405280929190818152602001828054613cc59061567f565b8015613d125780601f10613ce757610100808354040283529160200191613d12565b820191906000526020600020905b815481529060010190602001808311613cf557829003601f168201915b50505050508152602001600782018054613d2b9061567f565b80601f0160208091040260200160405190810160405280929190818152602001828054613d579061567f565b8015613da45780601f10613d7957610100808354040283529160200191613da4565b820191906000526020600020905b815481529060010190602001808311613d8757829003601f168201915b50505050508152602001600882018054613dbd9061567f565b80601f0160208091040260200160405190810160405280929190818152602001828054613de99061567f565b8015613e365780601f10613e0b57610100808354040283529160200191613e36565b820191906000526020600020905b815481529060010190602001808311613e1957829003601f168201915b50505050508152505090508060800151915050919050565b606060006001600084815260200190815260200160002060405180610120016040529081600082018054613e819061567f565b80601f0160208091040260200160405190810160405280929190818152602001828054613ead9061567f565b8015613efa5780601f10613ecf57610100808354040283529160200191613efa565b820191906000526020600020905b815481529060010190602001808311613edd57829003601f168201915b50505050508152602001600182018054613f139061567f565b80601f0160208091040260200160405190810160405280929190818152602001828054613f3f9061567f565b8015613f8c5780601f10613f6157610100808354040283529160200191613f8c565b820191906000526020600020905b815481529060010190602001808311613f6f57829003601f168201915b50505050508152602001600282018054613fa59061567f565b80601f0160208091040260200160405190810160405280929190818152602001828054613fd19061567f565b801561401e5780601f10613ff35761010080835404028352916020019161401e565b820191906000526020600020905b81548152906001019060200180831161400157829003601f168201915b505050505081526020016003820180546140379061567f565b80601f01602080910402602001604051908101604052809291908181526020018280546140639061567f565b80156140b05780601f10614085576101008083540402835291602001916140b0565b820191906000526020600020905b81548152906001019060200180831161409357829003601f168201915b505050505081526020016004820180546140c99061567f565b80601f01602080910402602001604051908101604052809291908181526020018280546140f59061567f565b80156141425780601f1061411757610100808354040283529160200191614142565b820191906000526020600020905b81548152906001019060200180831161412557829003601f168201915b5050505050815260200160058201805461415b9061567f565b80601f01602080910402602001604051908101604052809291908181526020018280546141879061567f565b80156141d45780601f106141a9576101008083540402835291602001916141d4565b820191906000526020600020905b8154815290600101906020018083116141b757829003601f168201915b505050505081526020016006820180546141ed9061567f565b80601f01602080910402602001604051908101604052809291908181526020018280546142199061567f565b80156142665780601f1061423b57610100808354040283529160200191614266565b820191906000526020600020905b81548152906001019060200180831161424957829003601f168201915b5050505050815260200160078201805461427f9061567f565b80601f01602080910402602001604051908101604052809291908181526020018280546142ab9061567f565b80156142f85780601f106142cd576101008083540402835291602001916142f8565b820191906000526020600020905b8154815290600101906020018083116142db57829003601f168201915b505050505081526020016008820180546143119061567f565b80601f016020809104026020016040519081016040528092919081815260200182805461433d9061567f565b801561438a5780601f1061435f5761010080835404028352916020019161438a565b820191906000526020600020905b81548152906001019060200180831161436d57829003601f168201915b5050505050815250509050806101000151915050919050565b60606000600360008481526020019081526020016000206040518060a00160405290816000820180546143d59061567f565b80601f01602080910402602001604051908101604052809291908181526020018280546144019061567f565b801561444e5780601f106144235761010080835404028352916020019161444e565b820191906000526020600020905b81548152906001019060200180831161443157829003601f168201915b505050505081526020016001820180546144679061567f565b80601f01602080910402602001604051908101604052809291908181526020018280546144939061567f565b80156144e05780601f106144b5576101008083540402835291602001916144e0565b820191906000526020600020905b8154815290600101906020018083116144c357829003601f168201915b505050505081526020016002820180546144f99061567f565b80601f01602080910402602001604051908101604052809291908181526020018280546145259061567f565b80156145725780601f1061454757610100808354040283529160200191614572565b820191906000526020600020905b81548152906001019060200180831161455557829003601f168201915b5050505050815260200160038201805461458b9061567f565b80601f01602080910402602001604051908101604052809291908181526020018280546145b79061567f565b80156146045780601f106145d957610100808354040283529160200191614604565b820191906000526020600020905b8154815290600101906020018083116145e757829003601f168201915b5050505050815260200160048201805461461d9061567f565b80601f01602080910402602001604051908101604052809291908181526020018280546146499061567f565b80156146965780601f1061466b57610100808354040283529160200191614696565b820191906000526020600020905b81548152906001019060200180831161467957829003601f168201915b50505050508152505090508060000151915050919050565b6060600060016000848152602001908152602001600020604051806101200160405290816000820180546146e19061567f565b80601f016020809104026020016040519081016040528092919081815260200182805461470d9061567f565b801561475a5780601f1061472f5761010080835404028352916020019161475a565b820191906000526020600020905b81548152906001019060200180831161473d57829003601f168201915b505050505081526020016001820180546147739061567f565b80601f016020809104026020016040519081016040528092919081815260200182805461479f9061567f565b80156147ec5780601f106147c1576101008083540402835291602001916147ec565b820191906000526020600020905b8154815290600101906020018083116147cf57829003601f168201915b505050505081526020016002820180546148059061567f565b80601f01602080910402602001604051908101604052809291908181526020018280546148319061567f565b801561487e5780601f106148535761010080835404028352916020019161487e565b820191906000526020600020905b81548152906001019060200180831161486157829003601f168201915b505050505081526020016003820180546148979061567f565b80601f01602080910402602001604051908101604052809291908181526020018280546148c39061567f565b80156149105780601f106148e557610100808354040283529160200191614910565b820191906000526020600020905b8154815290600101906020018083116148f357829003601f168201915b505050505081526020016004820180546149299061567f565b80601f01602080910402602001604051908101604052809291908181526020018280546149559061567f565b80156149a25780601f10614977576101008083540402835291602001916149a2565b820191906000526020600020905b81548152906001019060200180831161498557829003601f168201915b505050505081526020016005820180546149bb9061567f565b80601f01602080910402602001604051908101604052809291908181526020018280546149e79061567f565b8015614a345780601f10614a0957610100808354040283529160200191614a34565b820191906000526020600020905b815481529060010190602001808311614a1757829003601f168201915b50505050508152602001600682018054614a4d9061567f565b80601f0160208091040260200160405190810160405280929190818152602001828054614a799061567f565b8015614ac65780601f10614a9b57610100808354040283529160200191614ac6565b820191906000526020600020905b815481529060010190602001808311614aa957829003601f168201915b50505050508152602001600782018054614adf9061567f565b80601f0160208091040260200160405190810160405280929190818152602001828054614b0b9061567f565b8015614b585780601f10614b2d57610100808354040283529160200191614b58565b820191906000526020600020905b815481529060010190602001808311614b3b57829003601f168201915b50505050508152602001600882018054614b719061567f565b80601f0160208091040260200160405190810160405280929190818152602001828054614b9d9061567f565b8015614bea5780601f10614bbf57610100808354040283529160200191614bea565b820191906000526020600020905b815481529060010190602001808311614bcd57829003601f168201915b50505050508152505090508060a00151915050919050565b60606000600360008481526020019081526020016000206040518060a0016040529081600082018054614c349061567f565b80601f0160208091040260200160405190810160405280929190818152602001828054614c609061567f565b8015614cad5780601f10614c8257610100808354040283529160200191614cad565b820191906000526020600020905b815481529060010190602001808311614c9057829003601f168201915b50505050508152602001600182018054614cc69061567f565b80601f0160208091040260200160405190810160405280929190818152602001828054614cf29061567f565b8015614d3f5780601f10614d1457610100808354040283529160200191614d3f565b820191906000526020600020905b815481529060010190602001808311614d2257829003601f168201915b50505050508152602001600282018054614d589061567f565b80601f0160208091040260200160405190810160405280929190818152602001828054614d849061567f565b8015614dd15780601f10614da657610100808354040283529160200191614dd1565b820191906000526020600020905b815481529060010190602001808311614db457829003601f168201915b50505050508152602001600382018054614dea9061567f565b80601f0160208091040260200160405190810160405280929190818152602001828054614e169061567f565b8015614e635780601f10614e3857610100808354040283529160200191614e63565b820191906000526020600020905b815481529060010190602001808311614e4657829003601f168201915b50505050508152602001600482018054614e7c9061567f565b80601f0160208091040260200160405190810160405280929190818152602001828054614ea89061567f565b8015614ef55780601f10614eca57610100808354040283529160200191614ef5565b820191906000526020600020905b815481529060010190602001808311614ed857829003601f168201915b50505050508152505090508060200151915050919050565b828054614f199061567f565b90600052602060002090601f016020900481019282614f3b5760008555614f82565b82601f10614f5457805160ff1916838001178555614f82565b82800160010185558215614f82579182015b82811115614f81578251825591602001919060010190614f66565b5b509050614f8f9190614f93565b5090565b5b80821115614fac576000816000905550600101614f94565b5090565b6000604051905090565b600080fd5b600080fd5b6000819050919050565b614fd781614fc4565b8114614fe257600080fd5b50565b600081359050614ff481614fce565b92915050565b6000602082840312156150105761500f614fba565b5b600061501e84828501614fe5565b91505092915050565b600081519050919050565b600082825260208201905092915050565b60005b83811015615061578082015181840152602081019050615046565b83811115615070576000848401525b50505050565b6000601f19601f8301169050919050565b600061509282615027565b61509c8185615032565b93506150ac818560208601615043565b6150b581615076565b840191505092915050565b60006101208201905081810360008301526150db818c615087565b905081810360208301526150ef818b615087565b90508181036040830152615103818a615087565b905081810360608301526151178189615087565b9050818103608083015261512b8188615087565b905081810360a083015261513f8187615087565b905081810360c08301526151538186615087565b905081810360e08301526151678185615087565b905081810361010083015261517c8184615087565b90509a9950505050505050505050565b600060208201905081810360008301526151a68184615087565b905092915050565b6151b781614fc4565b82525050565b60006020820190506151d260008301846151ae565b92915050565b600060a08201905081810360008301526151f28188615087565b905081810360208301526152068187615087565b9050818103604083015261521a8186615087565b9050818103606083015261522e8185615087565b905081810360808301526152428184615087565b90509695505050505050565b600080fd5b600080fd5b7f4e487b7100000000000000000000000000000000000000000000000000000000600052604160045260246000fd5b61529082615076565b810181811067ffffffffffffffff821117156152af576152ae615258565b5b80604052505050565b60006152c2614fb0565b90506152ce8282615287565b919050565b600067ffffffffffffffff8211156152ee576152ed615258565b5b6152f782615076565b9050602081019050919050565b82818337600083830152505050565b6000615326615321846152d3565b6152b8565b90508281526020810184848401111561534257615341615253565b5b61534d848285615304565b509392505050565b600082601f83011261536a5761536961524e565b5b813561537a848260208601615313565b91505092915050565b60008060008060008060008060006101208a8c0312156153a6576153a5614fba565b5b60008a013567ffffffffffffffff8111156153c4576153c3614fbf565b5b6153d08c828d01615355565b99505060208a013567ffffffffffffffff8111156153f1576153f0614fbf565b5b6153fd8c828d01615355565b98505060408a013567ffffffffffffffff81111561541e5761541d614fbf565b5b61542a8c828d01615355565b97505060608a013567ffffffffffffffff81111561544b5761544a614fbf565b5b6154578c828d01615355565b96505060808a013567ffffffffffffffff81111561547857615477614fbf565b5b6154848c828d01615355565b95505060a08a013567ffffffffffffffff8111156154a5576154a4614fbf565b5b6154b18c828d01615355565b94505060c08a013567ffffffffffffffff8111156154d2576154d1614fbf565b5b6154de8c828d01615355565b93505060e08a013567ffffffffffffffff8111156154ff576154fe614fbf565b5b61550b8c828d01615355565b9250506101008a013567ffffffffffffffff81111561552d5761552c614fbf565b5b6155398c828d01615355565b9150509295985092959850929598565b600080600080600060a0868803121561556557615564614fba565b5b600086013567ffffffffffffffff81111561558357615582614fbf565b5b61558f88828901615355565b955050602086013567ffffffffffffffff8111156155b0576155af614fbf565b5b6155bc88828901615355565b945050604086013567ffffffffffffffff8111156155dd576155dc614fbf565b5b6155e988828901615355565b935050606086013567ffffffffffffffff81111561560a57615609614fbf565b5b61561688828901615355565b925050608086013567ffffffffffffffff81111561563757615636614fbf565b5b61564388828901615355565b9150509295509295909350565b7f4e487b7100000000000000000000000000000000000000000000000000000000600052602260045260246000fd5b6000600282049050600182168061569757607f821691505b602082108114156156ab576156aa615650565b5b50919050565b7f4e487b7100000000000000000000000000000000000000000000000000000000600052601160045260246000fd5b60006156eb82614fc4565b91507fffffffffffffffffffffffffffffffffffffffffffffffffffffffffffffffff82141561571e5761571d6156b1565b5b60018201905091905056fea26469706673582212201f42a0be0324857b1d41a1877f93d5acb606bb81360daa4f2813d27f4d288c4364736f6c634300080b0033",
  "immutableReferences": {},
  "source": "pragma solidity >= 0.8.11 <= 0.8.11;\r\npragma experimental ABIEncoderV2;\r\n//Evidence solidity code\r\ncontract Evidence {\r\n\r\n    uint public evidenceCount = 0; \r\n    mapping(uint => evidence) public evidenceList; \r\n     struct evidence\r\n     {\r\n       string evidence_id;\r\n       string officer_name;\r\n       string reported_crime;\r\n       string crime_details;\r\n       string evidence_details;\r\n       string crime_area;\r\n       string witness_name;\r\n       string witness_contact;\r\n       string crime_date;       \r\n     }\r\n \r\n   // events \r\n   event evidenceCreated(uint indexed _evidenceId);\r\n\r\n  \r\n   //function  to save evidence details\r\n   function createEvidence(string memory eid, string memory oname, string memory crime, string memory cd, string memory ed, string memory ca, string memory wn, string memory wc, string memory crime_dd) public {\r\n      evidenceList[evidenceCount] = evidence(eid, oname, crime, cd, ed, ca, wn, wc, crime_dd);\r\n      emit evidenceCreated(evidenceCount);\r\n      evidenceCount++;\r\n    }\r\n\r\n     //get evidence count\r\n    function getEvidenceCount()  public view returns (uint) {\r\n          return  evidenceCount;\r\n    }\r\n\r\n    function getEvidenceid(uint i) public view returns (string memory) {\r\n        evidence memory chq = evidenceList[i];\r\n\treturn chq.evidence_id;\r\n    }\r\n\r\n    function getOfficername(uint i) public view returns (string memory) {\r\n        evidence memory chq = evidenceList[i];\r\n\treturn chq.officer_name;\r\n    }      \r\n\r\n    function getReportedcrime(uint i) public view returns (string memory) {\r\n        evidence memory chq = evidenceList[i];\r\n\treturn chq.reported_crime;\r\n    }\r\n\r\n    function getCrimedetails(uint i) public view returns (string memory) {\r\n        evidence memory chq = evidenceList[i];\r\n\treturn chq.crime_details;\r\n    }     \r\n   \r\n    function getEvidencedetails(uint i) public view returns (string memory) {\r\n        evidence memory chq = evidenceList[i];\r\n\treturn chq.evidence_details;\r\n    }\r\n\r\n    function getCrimearea(uint i) public view returns (string memory) {\r\n        evidence memory chq = evidenceList[i];\r\n\treturn chq.crime_area;\r\n    }\r\n\r\n    function getWitnessname(uint i) public view returns (string memory) {\r\n        evidence memory chq = evidenceList[i];\r\n\treturn chq.witness_name;\r\n    }\r\n\r\n    function getCrimedate(uint i) public view returns (string memory) {\r\n        evidence memory chq = evidenceList[i];\r\n\treturn chq.crime_date;\r\n    }\r\n\r\n    function getWitnesscontact(uint i) public view returns (string memory) {\r\n        evidence memory chq = evidenceList[i];\r\n\treturn chq.witness_contact;\r\n    }\r\n           \r\n    uint public userCount = 0; \r\n    mapping(uint => user) public usersList; \r\n     struct user\r\n     {\r\n       string username;\r\n       string password;\r\n       string phone;\r\n       string email;\r\n       string station_address;\r\n     }\r\n \r\n   // events\r\n \r\n   event userCreated(uint indexed _userId);\r\n \r\n  function createUser(string memory _username, string memory _password, string memory _phone, string memory em, string memory sa) public {\r\n      usersList[userCount] = user(_username, _password, _phone, em, sa);\r\n      emit userCreated(userCount);\r\n      userCount++;\r\n    }\r\n\r\n    \r\n     //get user count\r\n    function getUserCount()  public view returns (uint) {\r\n          return  userCount;\r\n    }\r\n\r\n    function getUsername(uint i) public view returns (string memory) {\r\n        user memory usr = usersList[i];\r\n\treturn usr.username;\r\n    }\r\n\r\n    function getPassword(uint i) public view returns (string memory) {\r\n        user memory usr = usersList[i];\r\n\treturn usr.password;\r\n    }\r\n\r\n    function getPhone(uint i) public view returns (string memory) {\r\n        user memory usr = usersList[i];\r\n\treturn usr.phone;\r\n    }\r\n\r\n    function getEmail(uint i) public view returns (string memory) {\r\n        user memory usr = usersList[i];\r\n\treturn usr.email;\r\n    }\r\n\r\n    function getStationaddress(uint i) public view returns (string memory) {\r\n        user memory usr = usersList[i];\r\n\treturn usr.station_address;\r\n    }\r\n}",
  "sourcePath": "C:\\Users\\sukanya thogar\\OneDrive\\Desktop\\8.BLOCKCHAIN BASED CRIME EVIDENCE SYSTEM\\SOURCE CODE\\hello-eth\\node_modules\\.bin\\contracts\\Evidence.sol",
  "compiler": {
    "name": "solc",
    "version": "0.8.11+commit.d7f03943.Emscripten.clang"
  },
  "schemaVersion": "3.4.4",
  "updatedAt": "2025-07-19T08:59:41.522Z",
  "networkType": "ethereum",
  "devdoc": {
    "kind": "dev",
    "methods": {},
    "version": 1
  },
  "userdoc": {
    "kind": "user",
    "methods": {},
    "version": 1
  }
}